{
  "contractName": "TaskManager",
  "abi": [
    {
      "constant": true,
      "inputs": [],
      "name": "nTaks",
      "outputs": [
        {
          "name": "",
          "type": "uint256"
        }
      ],
      "payable": false,
      "stateMutability": "view",
      "type": "function"
    }
  ],
  "bytecode": "0x6080604052348015600f57600080fd5b5060988061001e6000396000f3fe6080604052348015600f57600080fd5b50600436106045576000357c010000000000000000000000000000000000000000000000000000000090048063d560c23514604a575b600080fd5b60506066565b6040518082815260200191505060405180910390f35b6000548156fea165627a7a72305820692289b314ef4c4cf8883a988a3718d82c6e5e4e89f707611ccb7eba2a8a5b9e0029",
  "source": "pragma solidity ^0.5.4;\n\ncontract TaskManager {\n    uint public nTaks;\n\n    enum TaskPhase { ToDo, InProgress, Done, Blocked, Review, Postponed, Canceled }\n\n    struct TaskStruct {\n        address owner;\n        string name;\n        TaskPhase phase;\n        // Priority 1-5: 1 -> higher, 5 less important\n        uint priority;\n    }\n\n}",
  "sourcePath": "/home/eduardo/github/TaskManager/contracts/TaskManager.sol",
  "compiler": {
    "name": "solc",
    "version": "0.5.4+commit.9549d8ff.Emscripten.clang"
  },
  "schemaVersion": "3.2.3",
  "updatedAt": "2021-11-22T17:00:12.890Z",
  "devdoc": {
    "methods": {}
  },
  "userdoc": {
    "methods": {}
  }
}