{
  "contractName": "TaskManager",
  "abi": [
    {
      "constant": true,
      "inputs": [],
      "name": "nTasks",
      "outputs": [
        {
          "name": "",
          "type": "uint256"
        }
      ],
      "payable": false,
      "stateMutability": "view",
      "type": "function"
    },
    {
      "inputs": [],
      "payable": false,
      "stateMutability": "nonpayable",
      "type": "constructor"
    },
    {
      "anonymous": false,
      "inputs": [
        {
          "indexed": false,
          "name": "owner",
          "type": "address"
        },
        {
          "indexed": false,
          "name": "name",
          "type": "string"
        },
        {
          "indexed": false,
          "name": "phase",
          "type": "uint8"
        },
        {
          "indexed": false,
          "name": "priority",
          "type": "uint256"
        }
      ],
      "name": "TaskAdded",
      "type": "event"
    },
    {
      "constant": false,
      "inputs": [
        {
          "name": "_taskIndex",
          "type": "uint256"
        },
        {
          "name": "_phase",
          "type": "uint8"
        }
      ],
      "name": "updatePhase",
      "outputs": [],
      "payable": false,
      "stateMutability": "nonpayable",
      "type": "function"
    },
    {
      "constant": true,
      "inputs": [
        {
          "name": "_taskIndex",
          "type": "uint256"
        }
      ],
      "name": "getTask",
      "outputs": [
        {
          "name": "_owner",
          "type": "address"
        },
        {
          "name": "_phase",
          "type": "uint8"
        },
        {
          "name": "_priority",
          "type": "uint256"
        },
        {
          "name": "_name",
          "type": "string"
        }
      ],
      "payable": false,
      "stateMutability": "view",
      "type": "function"
    },
    {
      "constant": true,
      "inputs": [],
      "name": "listMyTasks",
      "outputs": [
        {
          "name": "_myTasks",
          "type": "uint256[]"
        }
      ],
      "payable": false,
      "stateMutability": "view",
      "type": "function"
    },
    {
      "constant": false,
      "inputs": [
        {
          "name": "_name",
          "type": "string"
        },
        {
          "name": "_phase",
          "type": "uint8"
        },
        {
          "name": "_priority",
          "type": "uint256"
        }
      ],
      "name": "addTask",
      "outputs": [
        {
          "name": "index",
          "type": "uint256"
        }
      ],
      "payable": false,
      "stateMutability": "nonpayable",
      "type": "function"
    }
  ],
  "bytecode": "0x60806040523480156200001157600080fd5b50600080819055506200006c6040805190810160405280601381526020017f437265617465205461736b204d616e6167657200000000000000000000000000815250600260016200011b640100000000026401000000009004565b50620000c06040805190810160405280601681526020017f43726561746520596f7572206669727374207461736b00000000000000000000815250600060016200011b640100000000026401000000009004565b50620001146040805190810160405280601081526020017f436c65616e20796f757220686f75736500000000000000000000000000000000815250600060056200011b640100000000026401000000009004565b5062000531565b60006001821015801562000130575060058211155b1515620001a5576040517f08c379a00000000000000000000000000000000000000000000000000000000081526004018080602001828103825260208152602001807f5072696f72697479206d757374206265206265747765656e203120616e64203581525060200191505060405180910390fd5b620001af62000437565b6080604051908101604052803373ffffffffffffffffffffffffffffffffffffffff168152602001868152602001856006811115620001ea57fe5b8152602001848152509050600180829080600181540180825580915050906001820390600052602060002090600402016000909192909190915060008201518160000160006101000a81548173ffffffffffffffffffffffffffffffffffffffff021916908373ffffffffffffffffffffffffffffffffffffffff16021790555060208201518160010190805190602001906200028992919062000482565b5060408201518160020160006101000a81548160ff02191690836006811115620002af57fe5b02179055506060820151816003015550500391506000808154809291906001019190505550600260003373ffffffffffffffffffffffffffffffffffffffff1673ffffffffffffffffffffffffffffffffffffffff1681526020019081526020016000208290806001815401808255809150509060018203906000526020600020016000909192909190915055507f6f01dc0a3f1209ed3a201b417e08a69b7ab49236895cbcfa0f62b481101d7e1033868686604051808573ffffffffffffffffffffffffffffffffffffffff1673ffffffffffffffffffffffffffffffffffffffff16815260200180602001846006811115620003a957fe5b60ff168152602001838152602001828103825285818151815260200191508051906020019080838360005b83811015620003f1578082015181840152602081019050620003d4565b50505050905090810190601f1680156200041f5780820380516001836020036101000a031916815260200191505b509550505050505060405180910390a1509392505050565b608060405190810160405280600073ffffffffffffffffffffffffffffffffffffffff16815260200160608152602001600060068111156200047557fe5b8152602001600081525090565b828054600181600116156101000203166002900490600052602060002090601f016020900481019282601f10620004c557805160ff1916838001178555620004f6565b82800160010185558215620004f6579182015b82811115620004f5578251825591602001919060010190620004d8565b5b50905062000505919062000509565b5090565b6200052e91905b808211156200052a57600081600090555060010162000510565b5090565b90565b610a7380620005416000396000f3fe608060405234801561001057600080fd5b5060043610610074576000357c0100000000000000000000000000000000000000000000000000000000900480631d65e77e146100795780633e625c401461016f578063a082a81914610255578063e2c53075146102b4578063e95528f1146102d2575b600080fd5b6100a56004803603602081101561008f57600080fd5b810190808035906020019092919050505061030d565b604051808573ffffffffffffffffffffffffffffffffffffffff1673ffffffffffffffffffffffffffffffffffffffff1681526020018460068111156100e757fe5b60ff16815260200183815260200180602001828103825283818151815260200191508051906020019080838360005b83811015610131578082015181840152602081019050610116565b50505050905090810190601f16801561015e5780820380516001836020036101000a031916815260200191505b509550505050505060405180910390f35b61023f6004803603606081101561018557600080fd5b81019080803590602001906401000000008111156101a257600080fd5b8201836020820111156101b457600080fd5b803590602001918460018302840111640100000000831117156101d657600080fd5b91908080601f016020809104026020016040519081016040528093929190818152602001838380828437600081840152601f19601f820116905080830192505050505050509192919290803560ff169060200190929190803590602001909291905050506104f1565b6040518082815260200191505060405180910390f35b61025d610801565b6040518080602001828103825283818151815260200191508051906020019060200280838360005b838110156102a0578082015181840152602081019050610285565b505050509050019250505060405180910390f35b6102bc610896565b6040518082815260200191505060405180910390f35b61030b600480360360408110156102e857600080fd5b8101908080359060200190929190803560ff16906020019092919050505061089c565b005b60008060006060600085118015610325575060005485105b1515610399576040517f08c379a00000000000000000000000000000000000000000000000000000000081526004018080602001828103825260148152602001807f496e646578207461736b206e6f7420666f756e6400000000000000000000000081525060200191505060405180910390fd5b6001858154811015156103a857fe5b906000526020600020906004020160000160009054906101000a900473ffffffffffffffffffffffffffffffffffffffff1693506001858154811015156103eb57fe5b906000526020600020906004020160020160009054906101000a900460ff16925060018581548110151561041b57fe5b906000526020600020906004020160030154915060018581548110151561043e57fe5b90600052602060002090600402016001018054600181600116156101000203166002900480601f0160208091040260200160405190810160405280929190818152602001828054600181600116156101000203166002900480156104e35780601f106104b8576101008083540402835291602001916104e3565b820191906000526020600020905b8154815290600101906020018083116104c657829003601f168201915b505050505090509193509193565b600060018210158015610505575060058211155b1515610579576040517f08c379a00000000000000000000000000000000000000000000000000000000081526004018080602001828103825260208152602001807f5072696f72697479206d757374206265206265747765656e203120616e64203581525060200191505060405180910390fd5b610581610958565b6080604051908101604052803373ffffffffffffffffffffffffffffffffffffffff1681526020018681526020018560068111156105bb57fe5b8152602001848152509050600180829080600181540180825580915050906001820390600052602060002090600402016000909192909190915060008201518160000160006101000a81548173ffffffffffffffffffffffffffffffffffffffff021916908373ffffffffffffffffffffffffffffffffffffffff16021790555060208201518160010190805190602001906106589291906109a2565b5060408201518160020160006101000a81548160ff0219169083600681111561067d57fe5b02179055506060820151816003015550500391506000808154809291906001019190505550600260003373ffffffffffffffffffffffffffffffffffffffff1673ffffffffffffffffffffffffffffffffffffffff1681526020019081526020016000208290806001815401808255809150509060018203906000526020600020016000909192909190915055507f6f01dc0a3f1209ed3a201b417e08a69b7ab49236895cbcfa0f62b481101d7e1033868686604051808573ffffffffffffffffffffffffffffffffffffffff1673ffffffffffffffffffffffffffffffffffffffff1681526020018060200184600681111561077657fe5b60ff168152602001838152602001828103825285818151815260200191508051906020019080838360005b838110156107bc5780820151818401526020810190506107a1565b50505050905090810190601f1680156107e95780820380516001836020036101000a031916815260200191505b509550505050505060405180910390a1509392505050565b6060600260003373ffffffffffffffffffffffffffffffffffffffff1673ffffffffffffffffffffffffffffffffffffffff16815260200190815260200160002080548060200260200160405190810160405280929190818152602001828054801561088c57602002820191906000526020600020905b815481526020019060010190808311610878575b5050505050905090565b60005481565b813373ffffffffffffffffffffffffffffffffffffffff166001828154811015156108c357fe5b906000526020600020906004020160000160009054906101000a900473ffffffffffffffffffffffffffffffffffffffff1673ffffffffffffffffffffffffffffffffffffffff161415610953578160018481548110151561092157fe5b906000526020600020906004020160020160006101000a81548160ff0219169083600681111561094d57fe5b02179055505b505050565b608060405190810160405280600073ffffffffffffffffffffffffffffffffffffffff168152602001606081526020016000600681111561099557fe5b8152602001600081525090565b828054600181600116156101000203166002900490600052602060002090601f016020900481019282601f106109e357805160ff1916838001178555610a11565b82800160010185558215610a11579182015b82811115610a105782518255916020019190600101906109f5565b5b509050610a1e9190610a22565b5090565b610a4491905b80821115610a40576000816000905550600101610a28565b5090565b9056fea165627a7a72305820b92ffda5029a3e70ab5f0b479368f8ff8b2f5f367bd1e2939e0dbb7ccd18dea20029",
  "source": "pragma solidity ^0.5.4;\n\n\ncontract TaskManager {\n    uint public nTasks;\n\n    enum TaskPhase { ToDo, InProgress, Done, Blocked, Review, Postponed, Canceled }\n\n    struct TaskStruct {\n        address owner;\n        string name;\n        TaskPhase phase;\n        // Priority 1-5: 1 -> higher, 5 less important\n        uint priority;\n    }\n\n    TaskStruct [] private tasks;\n\n    mapping(address => uint[]) private myTasks;\n\n    constructor () public {\n        nTasks = 0;\n        addTask (\"Create Task Manager\", TaskPhase.Done, 1);\n        addTask (\"Create Your first task\", TaskPhase.ToDo, 1);\n        addTask (\"Clean your house\", TaskPhase.ToDo, 5);\n    }\n\n    /*\n        Criar um tipo de evento TaskAdded\n        Neste evento são informados o endereço do dono da tarefa;\n        O nome da tarefa;\n        Seu status e\n        Sua prioridade\n\n    */\n    event TaskAdded (address owner, string name, TaskPhase phase, uint priority);\n\n    \n    /*\n        modifier é utilizado para alterar o comportamento das funções.\n        Por exemplo, eles podem verificar automaticamente uma condição antes de executar a função.\n        Nosso projeto tem o modifier onlyOwner, que será utilizado para que somente o owner \n        possa acessar uma tarefa a partir do seu índice.\n    */\n    modifier onlyOwner (uint _taskIndex) {\n        if (tasks[_taskIndex].owner == msg.sender){\n            _;\n        }\n    }\n\n\n    function updatePhase(uint _taskIndex, TaskPhase _phase) public onlyOwner (_taskIndex){\n        tasks[_taskIndex].phase = _phase;\n    }\n\n    function getTask (uint _taskIndex) public view returns (address _owner, TaskPhase _phase, uint _priority, string memory _name){\n        require (_taskIndex > 0 && _taskIndex < nTasks, \"Index task not found\");\n        _owner = tasks[_taskIndex].owner;\n        _phase = tasks[_taskIndex].phase;\n        _priority = tasks[_taskIndex].priority;\n        _name = tasks[_taskIndex].name;\n    }\n\n    function listMyTasks () public view returns (uint [] memory _myTasks){\n        _myTasks = myTasks[msg.sender];\n\n    }\n\n    function addTask (string memory _name, TaskPhase _phase, uint _priority) public returns (uint index) {\n        require (_priority >= 1 && _priority <= 5, \"Priority must be between 1 and 5\");\n\n        TaskStruct memory taskAux = TaskStruct ( {\n            owner: msg.sender,\n            name: _name,\n            phase: _phase,\n            priority: _priority\n        });\n        index = tasks.push(taskAux) - 1;\n        nTasks++;\n        myTasks[msg.sender].push(index);\n\n        emit TaskAdded(msg.sender, _name, _phase, _priority);\n    }\n\n}",
  "sourcePath": "/home/eduardo/github/TaskManager/contracts/TaskManager.sol",
  "compiler": {
    "name": "solc",
    "version": "0.5.4+commit.9549d8ff.Emscripten.clang"
  },
  "schemaVersion": "3.2.3",
  "updatedAt": "2021-11-22T18:25:19.838Z",
  "networkType": "ethereum",
  "devdoc": {
    "methods": {}
  },
  "userdoc": {
    "methods": {}
  }
}