{
  "contractName": "TaskManager",
  "abi": [
    {
      "constant": true,
      "inputs": [],
      "name": "nTasks",
      "outputs": [
        {
          "name": "",
          "type": "uint256"
        }
      ],
      "payable": false,
      "stateMutability": "view",
      "type": "function"
    },
    {
      "inputs": [],
      "payable": false,
      "stateMutability": "nonpayable",
      "type": "constructor"
    },
    {
      "anonymous": false,
      "inputs": [
        {
          "indexed": false,
          "name": "owner",
          "type": "address"
        },
        {
          "indexed": false,
          "name": "name",
          "type": "string"
        },
        {
          "indexed": false,
          "name": "phase",
          "type": "uint8"
        },
        {
          "indexed": false,
          "name": "priority",
          "type": "uint256"
        }
      ],
      "name": "TaskAdded",
      "type": "event"
    },
    {
      "constant": false,
      "inputs": [
        {
          "name": "_taskIndex",
          "type": "uint256"
        },
        {
          "name": "_phase",
          "type": "uint8"
        }
      ],
      "name": "updatePhase",
      "outputs": [],
      "payable": false,
      "stateMutability": "nonpayable",
      "type": "function"
    },
    {
      "constant": true,
      "inputs": [
        {
          "name": "_taskIndex",
          "type": "uint256"
        }
      ],
      "name": "getTask",
      "outputs": [
        {
          "name": "_owner",
          "type": "address"
        },
        {
          "name": "_phase",
          "type": "uint8"
        },
        {
          "name": "_priority",
          "type": "uint256"
        }
      ],
      "payable": false,
      "stateMutability": "view",
      "type": "function"
    }
  ],
  "bytecode": "0x608060405234801561001057600080fd5b5060008081905550610363806100276000396000f3fe608060405234801561001057600080fd5b506004361061005e576000357c0100000000000000000000000000000000000000000000000000000000900480631d65e77e14610063578063e2c53075146100ed578063e95528f11461010b575b600080fd5b61008f6004803603602081101561007957600080fd5b8101908080359060200190929190505050610146565b604051808473ffffffffffffffffffffffffffffffffffffffff1673ffffffffffffffffffffffffffffffffffffffff1681526020018360068111156100d157fe5b60ff168152602001828152602001935050505060405180910390f35b6100f5610275565b6040518082815260200191505060405180910390f35b6101446004803603604081101561012157600080fd5b8101908080359060200190929190803560ff16906020019092919050505061027b565b005b6000806000808411801561015b575060005484105b15156101cf576040517f08c379a00000000000000000000000000000000000000000000000000000000081526004018080602001828103825260148152602001807f496e646578207461736b206e6f7420666f756e6400000000000000000000000081525060200191505060405180910390fd5b60006001858154811015156101e057fe5b906000526020600020906004020160000160009054906101000a900473ffffffffffffffffffffffffffffffffffffffff169050600060018681548110151561022557fe5b906000526020600020906004020160020160009054906101000a900460ff169050600060018781548110151561025757fe5b90600052602060002090600402016003015490505050509193909250565b60005481565b813373ffffffffffffffffffffffffffffffffffffffff166001828154811015156102a257fe5b906000526020600020906004020160000160009054906101000a900473ffffffffffffffffffffffffffffffffffffffff1673ffffffffffffffffffffffffffffffffffffffff161415610332578160018481548110151561030057fe5b906000526020600020906004020160020160006101000a81548160ff0219169083600681111561032c57fe5b02179055505b50505056fea165627a7a72305820f743255464aa695e95d9e75744664df9907a663eff00ec8c1f3e1a45998935d60029",
  "source": "pragma solidity ^0.5.4;\n\n\ncontract TaskManager {\n    uint public nTasks;\n\n    enum TaskPhase { ToDo, InProgress, Done, Blocked, Review, Postponed, Canceled }\n\n    struct TaskStruct {\n        address owner;\n        string name;\n        TaskPhase phase;\n        // Priority 1-5: 1 -> higher, 5 less important\n        uint priority;\n    }\n\n    TaskStruct [] private tasks;\n\n    mapping(address => uint[]) private myTasks;\n\n    constructor () public {\n        nTasks = 0;\n\n    }\n\n    /*\n        Criar um tipo de evento TaskAdded\n        Neste evento são informados o endereço do dono da tarefa;\n        O nome da tarefa;\n        Seu status e\n        Sua prioridade\n\n    */\n    event TaskAdded (address owner, string name, TaskPhase phase, uint priority);\n\n    \n    /*\n        modifier é utilizado para alterar o comportamento das funções.\n        Por exemplo, eles podem verificar automaticamente uma condição antes de executar a função.\n        Nosso projeto tem o modifier onlyOwner, que será utilizado para que somente o owner \n        possa acessar uma tarefa a partir do seu índice.\n    */\n    modifier onlyOwner (uint _taskIndex) {\n        if (tasks[_taskIndex].owner == msg.sender){\n            _;\n        }\n    }\n\n\n    function updatePhase(uint _taskIndex, TaskPhase _phase) public onlyOwner (_taskIndex){\n        tasks[_taskIndex].phase = _phase;\n    }\n\n    function getTask (uint _taskIndex) public view returns (address _owner, TaskPhase _phase, uint _priority){\n        require (_taskIndex > 0 && _taskIndex < nTasks, \"Index task not found\");\n        address _owner = tasks[_taskIndex].owner;\n        TaskPhase _phase = tasks[_taskIndex].phase;\n        uint _priority = tasks[_taskIndex].priority;\n    }\n\n}",
  "sourcePath": "/home/eduardo/github/TaskManager/contracts/TaskManager.sol",
  "compiler": {
    "name": "solc",
    "version": "0.5.4+commit.9549d8ff.Emscripten.clang"
  },
  "schemaVersion": "3.2.3",
  "updatedAt": "2021-11-22T17:35:32.317Z",
  "devdoc": {
    "methods": {}
  },
  "userdoc": {
    "methods": {}
  }
}